:0A00000018C0FECFFDCFFCCFFBCFF0
:10000A00FACFF9CFF8CFF7CFF6CFF5CFF4CFF3CFBA
:10001A0037C0F1CFF0CFEFCFEECFEDCF0000000128
:10002A000400040026000000F894EE27ECBBF1E07F
:10003A00FBBFEBBFE5BF8DE0A2E0BB27ED938A953E
:10004A00E9F780E094E0A0E6ED930197E9F7EAE2A8
:10005A00F0E085919591009761F0A591B591059091
:10006A001590BF01F00105900D920197E1F7FB0190
:10007A00F0CFEFE5EDBFE4E0EEBFC0E6D1E036C079
:10008A00AA93BA93EA93FA93EFB7EA93F2013196F5
:10009A002F01E3E0F0E04E165F0638F4A0E6B1E087
:1000AA00A40DB51DEC91ECB902C044245524E99184
:1000BA00EFBFF991E991B991A9911895AA9377207F
:1000CA0099F45D9BFECFE881E03021F4E0E95FD14D
:1000DA00E0E603C0E0E85BD1E0E0E093620144249B
:1000EA005524E0916001ECB922960895EFEFE7BB41
:1000FA00E8BBE0E4E4BBEFE3E5BBEFEFE1BBE0E044
:10010A00E2BBEBB9E8E4EAB9E6E8E0BDE0E0E0BD6D
:10011A00EFE0E9B978946620D9F5EDEF3ED142D106
:10012A0049F049D14BD13ED129F0E8E14BD14CD12C
:10013A00E09363014ED139F03ED14BD121F0E9E190
:10014A0054D1E09364015AD139F035D157D121F015
:10015A00EAE160D1E093650166D139F02CD163D12F
:10016A0021F0EBE16CD1E093660172D139F023D131
:10017A006FD121F0ECE178D1E09367017ED139F0BB
:10018A001AD17BD121F0EDE184D1E0936801F8C066
:10019A00E1E0E615D9F5EBEF00D184D149F00BD1B6
:1001AA000DD180D129F0EEE10DD10ED1E093690194
:1001BA0082D139F000D17FD121F0EFE116D1E0935D
:1001CA006A0185D139F0F7D082D121F0E0E222D15B
:1001DA00E0936B0188D139F0EED085D121F0E1E2CC
:1001EA002ED1E0936C018BD139F0E5D088D121F082
:1001FA00E2E23AD1E0936D018ED139F0DCD08BD1B5
:10020A0021F0E3E246D1E0936E01BAC0E2E0E615DE
:10021A00D9F5E7EFC2D08BD149F0CDD0CFD087D175
:10022A0029F0E4E2CFD0D0D0E0936F0189D139F040
:10023A00C2D086D121F0E5E2D8D0E09370018CD10A
:10024A0039F0B9D089D121F0E6E2E4D0E093710126
:10025A008FD139F0B0D08CD121F0E7E2F0D0E09321
:10026A00720192D139F0A7D08FD121F0E8E2FCD007
:10027A00E093730195D139F09ED092D121F0E9E251
:10028A0008D1E09374017CC0E3E0E615D9F5EFEEFE
:10029A0084D092D149F08FD091D08ED129F0EAE260
:1002AA0091D092D0E093750190D139F084D08DD15C
:1002BA0021F0EBE29AD0E093760193D139F07BD02A
:1002CA0090D121F0ECE2A6D0E093770196D139F0F3
:1002DA0072D093D121F0EDE2B2D0E093780199D1B6
:1002EA0039F069D096D121F0EEE2BED0E0937901DF
:1002FA009CD139F060D099D121F0EFE2CAD0E093D5
:10030A007A013EC0E4E0E615D9F5EFED46D099D181
:10031A0049F051D053D095D129F0E0E353D054D0CD
:10032A00E0937B0197D139F046D094D121F0E1E3F3
:10033A005CD0E0937C019AD139F03DD097D121F07D
:10034A00E2E368D0E0937D019DD139F034D09AD1AF
:10035A0021F0E3E374D0E0937E01A0D139F02BD0F1
:10036A009DD121F0E4E380D0E0937F01A3D139F05D
:10037A0022D0A0D121F0E5E38CD0E093800177244C
:10038A006394E4E0E61508F46624C5CEFFCFE09353
:10039A006001E981E09361010895E8BBA0E09899C2
:1003AA00A1E00895E0916301B0E0A7FDBFEFF0E09E
:1003BA00EA17FB070895A1E0B0E088C1A0E0989988
:1003CA00A1E00895EA93FACF79DEE0E09899E1E0B6
:1003DA000895A0E09999A1E0E0916401B0E0A7FD39
:1003EA00BFEFF0E0EA17FB070895EA93A0E09999B6
:1003FA00A1E064DEE0E09999E1E00895A0E09A992D
:10040A00A1E0E0916501B0E0A7FDBFEFF0E0EA17D7
:10041A00FB070895EA93A0E09A99A1E04FDEE0E095
:10042A009A99E1E00895A0E09B99A1E0E091660124
:10043A00B0E0A7FDBFEFF0E0EA17FB070895EA93E3
:10044A00A0E09B99A1E03ADEE0E09B99E1E0089503
:10045A00A0E09C99A1E0E0916701B0E0A7FDBFEFA1
:10046A00F0E0EA17FB070895EA93A0E09C99A1E05F
:10047A0025DEE0E09C99E1E00895A0E09D99A1E0E5
:10048A00E0916801B0E0A7FDBFEFF0E0EA17FB07D3
:10049A000895EA93A0E09D99A1E010DEE0E09D991D
:1004AA00E1E00895E0916901B0E0A7FDBFEFF0E057
:1004BA00EA17FB070895A0E09999A1E0E0916A0183
:1004CA00B0E0A7FDBFEFF0E0EA17FB070895A0E050
:1004DA009A99A1E0E0916B01B0E0A7FDBFEFF0E0CF
:1004EA00EA17FB070895A0E09B99A1E0E0916C014F
:1004FA00B0E0A7FDBFEFF0E0EA17FB070895A0E020
:10050A009C99A1E0E0916D01B0E0A7FDBFEFF0E09A
:10051A00EA17FB070895A0E09D99A1E0E0916E011A
:10052A00B0E0A7FDBFEFF0E0EA17FB070895E091FE
:10053A006F01B0E0A7FDBFEFF0E0EA17FB070895EF
:10054A00A0E09999A1E0E0917001B0E0A7FDBFEFAA
:10055A00F0E0EA17FB070895A0E09A99A1E0E0917C
:10056A007101B0E0A7FDBFEFF0E0EA17FB070895BD
:10057A00A0E09B99A1E0E0917201B0E0A7FDBFEF76
:10058A00F0E0EA17FB070895A0E09C99A1E0E0914A
:10059A007301B0E0A7FDBFEFF0E0EA17FB0708958B
:1005AA00A0E09D99A1E0E0917401B0E0A7FDBFEF42
:1005BA00F0E0EA17FB070895E0917501B0E0A7FDA6
:1005CA00BFEFF0E0EA17FB070895A0E09999A1E0D0
:1005DA00E0917601B0E0A7FDBFEFF0E0EA17FB0774
:1005EA000895A0E09A99A1E0E0917701B0E0A7FD13
:1005FA00BFEFF0E0EA17FB070895A0E09B99A1E09E
:10060A00E0917801B0E0A7FDBFEFF0E0EA17FB0741
:10061A000895A0E09C99A1E0E0917901B0E0A7FDDE
:10062A00BFEFF0E0EA17FB070895A0E09D99A1E06B
:10063A00E0917A01B0E0A7FDBFEFF0E0EA17FB070F
:10064A000895E0917B01B0E0A7FDBFEFF0E0EA1763
:10065A00FB070895A0E09999A1E0E0917C01B0E040
:10066A00A7FDBFEFF0E0EA17FB070895A0E09A990B
:10067A00A1E0E0917D01B0E0A7FDBFEFF0E0EA174D
:10068A00FB070895A0E09B99A1E0E0917E01B0E00C
:10069A00A7FDBFEFF0E0EA17FB070895A0E09C99D9
:1006AA00A1E0E0917F01B0E0A7FDBFEFF0E0EA171B
:1006BA00FB070895A0E09D99A1E0E0918001B0E0D8
:1006CA00A7FDBFEFF0E0EA17FB070895109639F08F
:1006DA0080ED97E00197F1F7A8951197C9F708956A
:00000001FF
